:020000040800F2
:1000000000000120B9030008E5010008D101000843
:10001000CD010008B9010008A5010008000000009A
:10002000000000000000000000000000A101000826
:100030009D01000800000000990100083906000831
:100040009501000895010008950100089501000838
:100050009501000895010008950100089501000828
:100060009501000895010008950100089501000818
:100070009501000895010008950100089501000808
:100080009501000895010008950100080000000096
:1000900000000000000000000000000095010008C2
:1000A00095010008950100089501000895010008D8
:1000B00095010008950100089501000895010008C8
:1000C00095010008950100089501000895010008B8
:1000D0009501000895010008950100080000000046
:1000E0009501000895010008950100080000000036
:1000F0000000000000000000000000009501000862
:100100000000000095010008950100089501000815
:1001100000000000000000000000000000000000DF
:100120009501000895010008950100089501000857
:100130009501000800000000000000000000000021
:100140000000000000000000000000009501000811
:100150009501000895010008950100089501000827
:100160009501000895010008000000000000000053
:10017000000000000000000000000000000000007F
:1001800000000000950100080000000000000000D1
:100190009501000800BEFEE700BEFEE700BEFEE7D8
:1001A00000BEFEE71EF0040F0CBFEFF30880EFF374
:1001B00009807146824A10471EF0040F0CBFEFF30E
:1001C0000880EFF3098071467E4A104700BEFEE7C3
:1001D0001EF0040F0CBFEFF30880EFF309807146A7
:1001E000794A104700BEFEE780B582B004468846D3
:1001F000084B5E6B9F6B9D6A074800F079FACDF85B
:1002000000803B4632462946204600F089FA00BE6F
:10021000FEE700BF00ED00E0B420000880B582B02A
:1002200004468846084B5E6B9F6B9D6A074800F04A
:100230005FFACDF800803B4632462946204600F062
:100240006FFA00BEFEE700BF00ED00E0C42000082A
:100250002DE9F04182B004468846134B5E6B9F6BDC
:100260009D6A1B6B13F0020F0DD00F4BDB6A002B46
:1002700009DA4BF6AB6100F0E5F920B14FF000422E
:10028000094BDA620CE0094800F032FACDF8008040
:100290003B4632462946204600F042FA00BEFEE7C1
:1002A00002B0BDE8F08100BF00ED00E0D020000802
:1002B00000B583B000F044F9304B314A1360314A45
:1002C000136031490CE00A684B6801F10C0488683E
:1002D00003E011681960043304329842F9D82146CA
:1002E0002A4B9942EFD3264B1A68294B9A4204D1E4
:1002F000244B1A68274B9A4200D0FEE71F4B264A30
:100300001360264A1360264B0AE0194651F8082B61
:100310005B6802E00020106004329A42FAD30B4678
:10032000204A9342F1D31C4B1B6813B91B4B1B682B
:1003300003B1FEE701F0CEF8694601A800F048F9E4
:10034000194C1A4B1C1BA410002504E0164B53F843
:10035000253098470135AC42F8DC154C154B1C1B79
:10036000A410002504E0124B53F8253098470135BE
:10037000AC42F8DC0099019800F0DCFBBABADECAA6
:100380000000002074000020CC030008E4030008F3
:100390007856341232547698780000201C010020E0
:1003A000E4030008F4030008F4030008F403000861
:1003B000F4030008F403000808B5FFF779FF000014
:0C03C000E90100081D02000851020008BD
:1003CC0014210008000000207800002014210008EF
:1003DC000000001000000010780000202001002018
:0803EC000000001000000010E9
:10040000034B1B681BB1024A1368013B1360704722
:1004100080000020034B1860024B1B68002BFBD1AF
:10042000704700BF800000200A4B1B684FF47A72AF
:10043000B3FBF2F3013BB3F1807F09D2064A53606C
:10044000F021064B83F823100023936007231360E9
:10045000704700BF0C00002010E000E000ED00E05D
:10046000224B9B6803F00C03042B07D0082B09D008
:10047000002B2DD11E4A1F4B1A602CE01E4A1D4B2B
:100480001A6028E0194B5A685B6803F03F0312F4C6
:10049000800F09D0184AB2FBF3F3144A5268C2F332
:1004A000881202FB03F308E0114AB2FBF3F30F4A90
:1004B0005268C2F3881202FB03F30C4A5268C2F37B
:1004C000014201325200B3FBF2F30A4A136002E028
:1004D000074A084B1A60054B9B68C3F30313074A8E
:1004E000D15C044A1368CB40136070470038024067
:1004F0000024F4000C00002000127A00781E00088E
:100500000C4B1A6842F001021A60002199601A68C7
:1005100022F0847222F480321A60074A5A601A6804
:1005200022F480221A60D9604FF00062034B9A6077
:10053000704700BF003802401030002400ED00E09A
:1005400008B5FFF7DDFF024B024A9A6008BD00BF05
:1005500000ED00E000000008F0B585B006460C464E
:10056000174B1B6883B9174B019304230293032392
:10057000039301AF012528463946ABBE0546B5F1C8
:10058000FF3F13D00E4B1D600D4B1B68019302966D
:10059000039401AE052528463146ABBE0546B5F1AC
:1005A000FF3F06D0A54207D0601B07E04FF0FF30A9
:1005B00004E04FF0FF3001E04FF0FF3005B0F0BD38
:1005C00088000020881E000808B5FFF7C5FF08BD99
:1005D00001230360014B0B60704700BF0400002043
:1005E000FEE700BF014B1868704700BF0C000020F9
:1005F0000138B0F1807F0AD2064B5860F021064ADC
:1006000082F823100020986007221A6070470120AA
:10061000704700BF10E000E000ED00E0014B1868FB
:10062000704700BF8C000020024A1368013313603A
:10063000704700BF8C00002008B5FFF7F5FFFFF7FB
:10064000DFFE08BD38B583691B888B4230D1044674
:1006500003684568013B042B2CD8DFE803F0032B2B
:1006600024241B001449286800F064FF70B96B68EB
:1006700013B90123236016E0042B02D10223236067
:1006800011E0082B02D1032323600CE04FF0FF336D
:10069000236008E02B68023B012B02D80023036093
:1006A00001E0AB680360A3690233A361012038BD98
:1006B000002038BD002038BD881E000810B5044653
:1006C00000F042FF01462046FFF77EFF012102486D
:1006D000FFF77AFF10BD00BF381F000808B50348B8
:1006E000FFF7ECFF0120FFF77BFF00BF8C1E000827
:1006F0000FB400B583B004AB53F8042B01938021F1
:10070000064800F055FF002803DD01460348FFF7C7
:100710005BFF03B05DF804EB04B07047900000206D
:10072000F8B504460D4617461E462648FFF7E0FF7B
:1007300021682548FFF7DCFF61682448FFF7D8FFF0
:10074000A1682348FFF7D4FFE1682248FFF7D0FFF4
:1007500021692148FFF7CCFF61692048FFF7C8FFF6
:10076000A1691F48FFF7C4FFE1691E48FFF7C0FFFA
:100770001D48FFF7BDFF29461C48FFF7B9FF1C4C79
:10078000E16A1C48FFF7B4FF216B1B48FFF7B0FF7D
:10079000E16B1A48FFF7ACFF15F0800F03D0394624
:1007A0001748FFF7A5FF15F4004F03D03146154851
:1007B000FFF79EFF1448FFF79BFF06991348FFF7CA
:1007C00097FFF8BDA01E0008B01E0008C01E00085C
:1007D000D01E0008E01E0008F01E0008001F0008E0
:1007E000101F0008201F0008301F00083C1F0008D1
:1007F00000ED00E04C1F00085C1F00086C1F0008A3
:100800007C1F00088C1F00089C1F0008A41F000804
:1008100008B50A4601460248FFF76AFFFFF75EFF88
:10082000BC1F000808B521B940F2B1110748FFF715
:10083000EFFF012A04D94FF4D9710448FFF7E8FF0C
:100840000AB1816108BD0B04836108BDE81F00087F
:10085000F0B583B0A14B984217D003F5806398425E
:1008600013D003F5806398420FD003F5806398425C
:100870000BD003F58063984207D003F5406398429C
:1008800003D0C5219648FFF7C3FF0B881BB9C621CB
:100890009348FFF7BDFF4B68012B22D9112B20D0C5
:1008A000022B1ED0122B1CD08E4A934219D002F577
:1008B0008012934215D002F58012934211D0A2F516
:1008C000F81293420DD002F58012934209D002F53E
:1008D0008012934205D0032B03D0C7218048FFF735
:1008E00097FF8B68022B40F2F380C8217C48FFF70A
:1008F0008FFF012595400C682C40A54240F0E68012
:100900004B68022B01D0122B3CD10B694BB3092B46
:1009100027D033B32BB323B31BB3012B21D020D06B
:10092000022B1ED01DD01CD0042B1AD019D018D0E9
:10093000052B16D015D0062B13D0052B11D0072B65
:100940000FD00ED0082B0CD00A2B0AD0092B08D0C0
:1009500007D00C2B05D00F2B03D0D9216048FFF70F
:1009600057FFD608083650F826C002F007039F004C
:100970000F23BB402CEA030E0B69BB404EEA030376
:1009800040F82630066857000323BB40DB4306EAE5
:10099000030E4E6806F00306BE404EEA06060660E9
:1009A0004E6806F1FF3EBEF1010F03D9112E01D0B2
:1009B000122E17D1CE68032E03D9EC214848FFF739
:1009C00027FF866803EA060ECE68BE404EEA06069A
:1009D0008660466826EA05064D68C5F30015954011
:1009E00035434560C5682B408D6805FA07F71F43FE
:1009F000C7604B6813F0805F68D0002301933A4BC7
:100A00005D6C45F480455D645B6C03F48043019349
:100A1000019B9508AE1C354B53F8267002F003037A
:100A20009E000F23B34027EA03072C4B984211D0B6
:100A300003F5806398420FD003F5806398420DD090
:100A400003F5806398420BD003F58063984209D187
:100A5000042308E0002306E0012304E0022302E06F
:100A6000032300E00523B3403B4302351F4E46F805
:100A700025301F4B1D68E34305EA03064F6817F452
:100A8000803F01D044EA0506194D2E606D6803EAE7
:100A900005064F6817F4003F01D044EA0506144DDF
:100AA0006E60AD6803EA05064F6817F4801F01D039
:100AB00044EA05060E4DAE60ED682B404E6816F414
:100AC000001F01D044EA0503094CE360013200E055
:100AD00000220F2A7FF60DAF03B0F0BD00000240E8
:100AE000E81F0008000011100038024000380140E3
:100AF000003C014030B587B00C4A136B43F008034B
:100B000013634FF48055019501230293022204924E
:100B10000393074C01A92046FFF79AFE00222946BD
:100B20002046FFF77FFE07B030BD00BF003802400F
:100B3000000C024008B51548FFF7C0FD144B1968BA
:100B40001448FFF7D5FDFFF76FFCFFF7D3FF002434
:100B500001224FF480511048FFF764FE14B94FF49E
:100B60007A7001E040F2EE20FFF754FC00224FF4CF
:100B700080510948FFF756FEFA20FFF74BFC01347D
:100B800021460648FFF7B4FDE2E700BF1820000841
:100B90000C0000202C200008000C0240442000081B
:100BA00008B5042805D020B140F2B3110848FFF77A
:100BB0002FFE042805D1074A136843F0040313608D
:100BC00008BD044A136823F00403136008BD00BF86
:100BD0005020000810E000E038B50F2A03D9BC21EE
:100BE0001948FFF715FE0F2903D9BD211648FFF755
:100BF0000FFE164BDB68C3F30223C3F10704042C7A
:100C000028BF04241D1D062D01D9DD1E00E000258E
:100C1000012303FA04F4013C2140A940AB40013B0D
:100C20001A400A43002806DA00F00F001201D2B27F
:100C3000074B1A5438BD1201D2B200F1604000F5E2
:100C4000614080F8002338BD5020000800ED00E02E
:100C500014ED00E010B50446074B18684FF47A73A2
:100C6000B0FBF3F0FFF7C4FC002221464FF0FF3049
:100C7000FFF7B2FF002010BD0C00002008B5C31E16
:100C8000042B03D9A4210948FFF7C2FD084AD36801
:100C900023F4E0631B041B0C000200F4E060034338
:100CA00043F0BF6343F40033D36008BD5020000815
:100CB00000ED00E008B50A4B1A6842F400721A60B1
:100CC0001A6842F480621A601A6842F480721A60EC
:100CD0000320FFF7D3FF0F20FFF7BCFF002008BD64
:100CE000003C0240254B9B6803F00C03042B40D0D2
:100CF000082B01D02248704710B4204A536803F0F3
:100D00003F03526812F4800F11D01E48B0FBF3F37A
:100D10001A4A526847F6C07402EA040194FAA4F22F
:100D2000B2FA82F221FA02F202FB03F310E0144855
:100D3000B0FBF3F3114A526847F6C07402EA0401AB
:100D400094FAA4F2B2FA82F221FA02F202FB03F35D
:100D50000A4A506800F440324FF4403090FAA0F054
:100D6000B0FA80F022FA00F001304000B3FBF0F05E
:100D700001E00448704710BC704700BF00380240D3
:100D80000024F40000127A0070B50368013B0E2BBA
:100D900004D940F237219048FFF73AFD04460D464A
:100DA000072904D94FF40E718B48FFF731FD8B4BA7
:100DB0001B6803F00F03994208D9CBB2874A13701E
:100DC000136803F00F03994240F0F480236813F096
:100DD000020F1DD0A368A3B1802B12D0902B10D08E
:100DE000A02B0ED0B02B0CD0C02B0AD0D02B08D00B
:100DF000E02B06D0F02B04D040F24F217648FFF7CD
:100E000007FD77498B6823F0F002A36813438B60DA
:100E1000236813F0010F6BD06368032B04D940F2F1
:100E200056216D48FFF7F4FC6368012B05D16C4A2D
:100E3000126812F4003F0FD1BEE09A1E012A05D8B5
:100E4000674A126812F0007F06D1B7E0644A126860
:100E500012F0020F00F0B48061498A6822F00302A8
:100E600013438B60FFF7DAFB06466368012B0FD153
:100E700007E0FFF7D3FB801B41F28833984200F272
:100E8000A180574B9B6803F00C03042BF1D12FE09A
:100E9000022B0FD107E0FFF7C1FB801B41F2883323
:100EA000984200F291804E4B9B6803F00C03082B94
:100EB000F1D11DE0032B16D107E0FFF7AFFB801B3C
:100EC00041F28833984200F28180454B9B6803F0E1
:100ED0000C030C2BF1D10BE0FFF7A0FB801B41F2C0
:100EE0008833984274D83E4B9B6813F00C0FF3D1B3
:100EF0003A4B1B6803F00F039D4207D2EAB2374B0F
:100F00001A701B6803F00F039D4263D1236813F02E
:100F1000040F19D0E36883B1B3F5805F0DD0B3F54A
:100F2000A05F0AD0B3F5C05F07D0B3F5E05F04D08F
:100F30004FF42D712848FFF76BFC29498B6823F487
:100F4000E052E36813438B60236813F0080F1AD054
:100F5000236983B1B3F5805F0DD0B3F5A05F0AD0EC
:100F6000B3F5C05F07D0B3F5E05F04D040F2BB211A
:100F70001948FFF74DFC1A4A9368216923F460432E
:100F800043EAC1039360FFF7ADFE154B9B6803F086
:100F9000F002F02393FAA3F3B3FA83F322FA03F3F4
:100FA000104AD35CD840104B18600F20FFF752FE58
:100FB000002070BD012070BD012070BD012070BDFA
:100FC000012070BD032070BD032070BD032070BDE3
:100FD000032070BD012070BD84200008003C024049
:100FE00000380240681E00080C00002030B583B0B5
:100FF00003680F2B03D9F521A748FFF709FC044626
:10100000036813F0010F45D04368012B05D9052B68
:1010100003D0FA21A048FFF7FBFBA04B9B6803F02D
:101020000C03042B0AD09D4B9B6803F00C03082B88
:101030000CD19A4B5B6813F4800F07D0974B1B6859
:1010400013F4003F26D0636823BBD1E12279944B8F
:101050001A7063687BB1FFF7E1FA054605E0FFF718
:10106000DDFA401B642800F2C5818C4B1B6813F429
:10107000003FF4D00EE0FFF7D1FA054605E0FFF798
:10108000CDFA401B642800F2B781844B1B6813F42F
:10109000003FF4D1236813F0020F6CD0E368012BFA
:1010A00004D94FF496717C48FFF7B2FB23691F2BDC
:1010B00004D940F22D117848FFF7AAFB774B9B68C3
:1010C00013F00C0F0AD0754B9B6803F00C03082B30
:1010D0001CD1724B5B6813F4800F17D16F4B1B68E8
:1010E00013F0020F03D0E368012B40F087816B48B7
:1010F000036823F0F8022169F82393FAA3F3B3FA03
:1011000083F301FA03F31343036034E0E36803B3AA
:101110000122644B1A60FFF781FA054605E0FFF7EC
:101120007DFA401B022800F26B815C4B1B6813F0B8
:10113000020FF4D05948036823F0F8022169F8231C
:1011400093FAA3F3B3FA83F301FA03F313430360AF
:1011500011E00022534B1A60FFF760FA054605E0E4
:10116000FFF75CFA401B022800F24C814B4B1B68D6
:1011700013F0020FF4D1236813F0080F2ED0636927
:10118000012B04D940F26D114348FFF741FB63691D
:1011900093B10122444B1A60FFF740FA054605E07F
:1011A000FFF73CFA401B022800F22E813B4B5B6F9D
:1011B00013F0020FF4D011E000223B4B1A60FFF74E
:1011C0002DFA054605E0FFF729FA401B022800F238
:1011D0001D81324B5B6F13F0020FF4D1236813F0C3
:1011E000040F51D0A368012B06D9052B04D040F27F
:1011F00097112948FFF70CFB00230193274B1A6C2A
:1012000042F080521A641B6C03F080530193019BDF
:10121000264A136843F480731360FFF7FFF905460D
:1012200005E0FFF7FBF9401B022800F2F1801F4B9D
:101230001B6813F4807FF4D0227A1D4B1A70A368C8
:101240008BB1FFF7EBF9054607E0FFF7E7F9401B25
:1012500041F28833984200F2DD80104B1B6F13F08F
:10126000020FF2D010E0FFF7D9F9054607E0FFF7CB
:10127000D5F9401B41F28833984200F2CD80074BEC
:101280001B6F13F0020FF2D1A369022B12D94FF496
:10129000E6710148FFF7BCFA8420000800380240DC
:1012A0000238024000004742800E47420070004072
:1012B00070380240A269002A00F0B0805D4B9B6844
:1012C00003F00C03082B00F0AB80022A7DD1E36908
:1012D0003BB1B3F5800F04D040F2D5115648FFF76B
:1012E00097FA236A3F2B04D94FF4EB715248FFF76A
:1012F0008FFA636A323BB3F5BF7F04D940F2D7114E
:101300004D48FFF785FAA36A022B0AD0042B08D0B8
:10131000062B06D0082B04D04FF4EC714648FFF79B
:1013200077FAE36A043B0B2B04D940F2D911424807
:10133000FFF76EFA0022414B1A60FFF76FF905467E
:1013400004E0FFF76BF9401B02286BD8394B1B6890
:1013500013F0007FF5D1E169236A0B43616A47F618
:10136000C07292FAA2F2B2FA82F201FA02F242EAF0
:101370000301A36A5B08581E4FF4403393FAA3F3AA
:10138000B3FA83F300FA03F343EA0102E16A4FF090
:10139000706393FAA3F3B3FA83F301FA03F31343ED
:1013A000244A53600122254B1A60FFF737F904469F
:1013B00004E0FFF733F9001B022835D81D4B1B68EA
:1013C00013F0007FF5D0002031E000221B4B1A60A3
:1013D000FFF724F9044604E0FFF720F9001B022878
:1013E00024D8144B1B6813F0007FF5D100201EE0B9
:1013F00001201CE003201AE0032018E0012016E081
:10140000032014E0032012E0032010E003200EE08C
:1014100003200CE003200AE0032008E0002006E09F
:10142000012004E0032002E0032000E0032003B0D9
:1014300030BD00BF003802408420000860004742F1
:1014400070B594B000240194204B1A6C42F0805285
:101450001A641B6C03F080530193019B02941C4B94
:101460001A6842F440421A601B6803F44043029336
:10147000029B0123089309934FF480030F930823E1
:1014800010934FF4A8731193042612960723139315
:1014900002250E9508A8FFF7A9FD0F2303930495D5
:1014A00005944FF4805306930794294603A8FFF749
:1014B0006BFCFFF797F84FF47A73B0FBF3F0FFF78C
:1014C00097F83046FFF76CFB14B070BD003802404F
:1014D0000070004008B5FFF7EDFBFFF7B1FFFEF726
:1014E000BFFF08BD08B50D4B1B6813B90C4A0B4B69
:1014F0001A600A4B1A68C31C23F0030313440949FA
:101500008B4206D900F010F80C2303604FF0FF3037
:1015100008BD02490B60104608BD00BF7C000020DA
:101520002001002000FC0020014B1868704700BF1C
:101530007000002010F8012B11F8013B012A28BF90
:101540009A42F7D0D01A7047034613F8012B002AAD
:10155000FBD1181A0138704730B5141E05469BB0F0
:10156000184604DA8B232B604FF0FF301DE04FF458
:101570000273ADF80C3014BF04F1FF33234602931D
:1015800005934FF6FF7300910491ADF80E300246BB
:101590001E9B6946284600F073F8431CBCBF8B2392
:1015A0002B6014B1009B00221A701BB030BD0000EC
:1015B00007B5009313460A46014603480068FFF743
:1015C000CBFF03B05DF804FB700000202DE9F0476D
:1015D0008E689E4282460C46914698463ED88A893D
:1015E00012F4906F3AD0256809696F1A6569022371
:1015F00005EB450595FBF3F57B1C43449D4238BF45
:101600001D4653050FD5294600F08EFB064698B1BE
:101610003A46216900F014FBA38923F4906343F058
:101620008003A38113E02A4600F0DCFB064670B974
:101630002169504600F02AFB0C23CAF80030A38928
:1016400043F04003A3814FF0FF30BDE8F0872661EF
:1016500065613E44ED1B2660A5604646464528BFB1
:10166000464632464946206800F0F5FAA3689B1BBF
:10167000A36023681E4426600020BDE8F0870000B8
:101680002DE9F04F9DB0804603938B891C060D46D3
:1016900016460DD50B695BB9402100F045FB28606B
:1016A000286118B90C23C8F80030CDE040236B61E5
:1016B0000023099320238DF82930DFF89CB13023D3
:1016C0008DF82A3037463C4614F8013B1BB9B7EB7E
:1016D000060910D003E0252BF9D02746F3E74B4647
:1016E000324629464046FFF771FF013000F0A780DF
:1016F000099B4B4409933B78002B00F0A08000230A
:101700004FF0FF3204930793059206938DF8533000
:101710001A930126052221784E4800F041FA671CF1
:10172000049B38B14B4A801A06FA00F01843049023
:101730003C46EFE7D90644BF20228DF853201A0714
:1017400044BF2B228DF8532022782A2A03D0079AEF
:1017500000210A200BE0039A111D12680391002A50
:1017600010DA524243F00200079204900BE0274641
:1017700001343B78303B092B03D800FB02320121B6
:10178000F5E701B107923B782E2B1ED17B782A2BEF
:101790000AD1039B1A1D1B680392002BB8BF4FF0A0
:1017A000FF330237059310E000230593781C194698
:1017B0000A24074601303A78303A092A03D804FB54
:1017C00001210123F5E703B105910322397822486D
:1017D00000F0E6F940B14023CBEB000003FA00F043
:1017E000049B18430490013739781C488DF8281061
:1017F00006227E1C00F0D4F988B1194B33B9039B43
:10180000073323F007030833039314E003AB00937B
:101810002A46144B04A94046AFF3008007E003AB0F
:1018200000932A460F4B04A9404600F093F8B0F10C
:10183000FF3F824603D0099B5344099342E7AB899B
:101840005B0601D4099801E04FF0FF301DB0BDE800
:10185000F08F00BFE0200008E6200008EA20000822
:1018600000000000CD1500082DE9F04791461F4605
:101870000A698B68DDF820809342B8BF1346C9F827
:10188000003091F8432006460C4612B10133C9F8E6
:1018900000302368990642BFD9F800300233C9F8F6
:1018A0000030256815F0060510D104F1190A07E08B
:1018B0000123524639463046C04701301AD001351F
:1018C000E368D9F800209B1A9D42F1DB94F843307D
:1018D0002268003318BF012392060FD5E1185A1C65
:1018E000302081F84300224494F8451082F84310D8
:1018F000023303E04FF0FF30BDE8F08704F143020C
:1019000039463046C0470130F4D02268D9F800503B
:10191000E36802F00602042A08BF5D1B2269A3687F
:101920000CBF25EAE57500259342C4BF9B1AED184C
:101930004FF000091A344D4509D00123224639469B
:101940003046C0470130D5D009F10109F3E7002046
:10195000BDE8F0872DE9F04317460A7E85B06E2A70
:10196000984606460C460C9B01F1430E00F0AE80F3
:1019700011D8632A22D009D8002A00F0BB80582A47
:1019800040F0CA8081F84520834955E0642A1ED082
:10199000692A1CD0C0E0732A00F0B08009D86F2AF1
:1019A0002ED0702A40F0B8800A6842F020020A6007
:1019B0003EE0752A24D0782A3AD0ADE01A6801F1C9
:1019C0004205111D1960136884F84230A8E02168AF
:1019D0001A6811F0800F02D0111D196008E011F093
:1019E000400F02F10401196002D0B2F9003000E0AA
:1019F0001368002B3CDA2D225B4284F8432037E049
:101A000021681A6811F0800F02D0111D196007E0DB
:101A100011F0400F02F10401196001D0138800E0B9
:101A20001368227E5C496F2A14BF0A2208221BE039
:101A300078225A4984F845202268186812F0800FED
:101A400000F104051D6003D1550601D5038800E0AF
:101A50000368D00744BF42F0200222601BB922680D
:101A600022F0200222601022002084F8430001E0CE
:101A700049490A226568A560002D08DB206820F02E
:101A8000040020602BB9002D7DD175460CE0002BA1
:101A900079D07546B3FBF2F002FB1033CB5C05F84E
:101AA000013D03460028F5D1082A0BD12368DA0747
:101AB00008D5236962689A42DEBF302305F8013CED
:101AC00005F1FF35C5EB0E0323612EE008681A68A7
:101AD000496910F0800F03D0101D1860136808E0EA
:101AE00010F0400F02F104001860136801D0198053
:101AF00000E0196000232361754616E01A68111D85
:101B00001960156862680021284600F049F808B19C
:101B1000401B6060636804E004F1420584F84220E1
:101B200001232361002384F84330CDF800803B4635
:101B300003AA21463046FFF797FE013002D14FF04D
:101B4000FF3026E023692A4639463046C047013037
:101B5000F5D023689B0710D5002504F1190907E08B
:101B600001234A4639463046C0470130E7D00135A7
:101B7000E368039A9B1A9D42F2DBE068039B98425C
:101B8000B8BF184605E00B7884F8423004F14205EE
:101B90008AE705B0BDE8F083F120000802210008C3
:101BA00001F0FF01102A2BDB10F0070F08D010F80E
:101BB000013B013A8B422DD010F0070F42B3F6D112
:101BC000F0B441EA012141EA014122F007047FF02B
:101BD00000070023F0E80256083C85EA010586EA82
:101BE000010685FA47F5A3FA87F586FA47F6A5FABE
:101BF00087F68EB9EED1F0BC01F0FF0102F00702CA
:101C000032B110F8013B013A83EA010313B1F8D174
:101C10000020704701387047002D06BF3546033855
:101C2000073815F0010F07D1013015F4807F02BF8E
:101C3000013015F4C03F0130F0BC0138704700BFDF
:101C400010B5431E0A44914204D011F8014B03F829
:101C5000014FF8E710BD884210B501EB020301D82F
:101C6000421E0BE09842FBD28118D21AD34204D014
:101C700013F8014D01F8014DF8E710BD994204D069
:101C800011F8014B02F8014FF8E710BD38B50546D1
:101C9000002946D051F8043C0C1F002BB8BFE418B3
:101CA00000F0D6F81F4A1368114613B96360146038
:101CB00032E0A3420ED92268A018834204BF1868FC
:101CC0005B68636004BF121822600C6024E0A242CB
:101CD00003D813465A68002AF9D118681918A14286
:101CE0000BD12168014458188242196014D1106840
:101CF00052685A60014419600EE002D90C232B602F
:101D00000AE021686018824204BF1068526862606D
:101D100004BF091821605C602846BDE8384000F027
:101D200098B838BD1401002070B5CD1C25F003050E
:101D300008350C2D38BF0C25002D064601DBA942C5
:101D400002D90C23336046E000F082F8234B1C6874
:101D50001A462146A1B10B685B1B0ED40B2B03D98D
:101D60000B60CC18CD501EE08C420DBF63684B68F1
:101D70006360136018BF0C4615E00C464968E9E73C
:101D8000174C23681BB9304600F052F820602946F2
:101D9000304600F04DF8431C18D0C41C24F0030456
:101DA000A0420DD12560304600F053F804F10B003D
:101DB000231D20F00700C31A0ED05A42E25070BD16
:101DC000211A304600F034F80130EBD10C23336097
:101DD000304600F03EF8002070BD00BF1401002026
:101DE00010010020F8B5074615460E4621B91146E8
:101DF000BDE8F840FFF798BF1AB9FFF747FF28463C
:101E0000F8BD00F027F885420ED929463846FFF77D
:101E10008BFF044650B131462A46FFF711FF314689
:101E20003846FFF733FF01E03046F8BD2046F8BDE5
:101E300038B5064C0023054608462360FFF752FBE1
:101E4000431C02D1236803B12B6038BD1801002068
:101E50007047704751F8040C0028BEBF091851F8AC
:101E6000043CC0180438704700000000010203045D
:101E7000010203040607080900000000000000003A
:101E800001020304060708093A74740061626F7264
:101E90007428292C2065786974696E672E2E2E00AF
:101EA000537461636B206672616D653A0A000000CD
:101EB000205230203D2020253038580A00000000F4
:101EC000205231203D2020253038580A00000000E3
:101ED000205232203D2020253038580A00000000D2
:101EE000205233203D2020253038580A00000000C1
:101EF00020523132203D20253038580A00000000A1
:101F0000204C52203D2020253038580A0000000087
:101F1000205043203D2020253038580A0000000082
:101F200020505352203D20253038580A0000000030
:101F30004653522F4641523A0A000000204346536E
:101F400052203D2020253038580A000020484653B2
:101F500052203D2020253038580A000020444653A6
:101F600052203D2020253038580A00002041465399
:101F700052203D2020253038580A0000204D4D4683
:101F80004152203D20253038580A00002042464169
:101F900052203D2020253038580A00004D697363D7
:101FA0000A000000204C522F4558435F52455455BB
:101FB000524E3D20253038580A0000006173736589
:101FC00072745F706172616D2829206661696C6549
:101FD000643A2066696C6520222573222C206C6986
:101FE0006E652025640A00002E2E2F7379737465A8
:101FF0006D2F7372632F73746D333266342D686185
:102000006C2F73746D3332663478785F68616C5FFF
:102010006770696F2E63000048656C6C6F204152D9
:102020004D20576F726C6421000000005379737467
:10203000656D20636C6F636B3A20257520487A0AC2
:10204000000000005365636F6E642025750A000070
:102050002E2E2F73797374656D2F7372632F7374C3
:102060006D333266342D68616C2F73746D33326654
:102070003478785F68616C5F636F727465782E6323
:10208000000000002E2E2F73797374656D2F73720C
:10209000632F73746D333266342D68616C2F7374E3
:1020A0006D3332663478785F68616C5F7263632E7B
:1020B000630000005B55736167654661756C745D14
:1020C0000A0000005B4275734661756C745D0A001E
:1020D0005B486172644661756C745D0A00000000C3
:1020E000232D302B2000686C4C0065666745464701
:1020F0000030313233343536373839414243444584
:1021000046003031323334353637383961626364F2
:0321100065660001
:102114007856341284000020000000000024F400EB
:1021240000000000000000000000000000000000AB
:10213400000000000000000000000000000000009B
:10214400000000000000000000000000000000008B
:10215400000000000000000000000000000000007B
:10216400000000000000000000000000000000006B
:10217400000000000000000000000000000000005B
:0821840010000020325476988F
:04000005080002B13C
:00000001FF
